{
  "_format": "hh-sol-artifact-1",
  "contractName": "TONEscrow",
  "sourceName": "contracts/TONEscrow.sol",
  "abi": [
    {
      "inputs": [
        {
          "internalType": "address",
          "name": "_tonAddress",
          "type": "address"
        }
      ],
      "stateMutability": "nonpayable",
      "type": "constructor"
    },
    {
      "anonymous": false,
      "inputs": [
        {
          "indexed": false,
          "internalType": "address",
          "name": "payee",
          "type": "address"
        },
        {
          "indexed": false,
          "internalType": "uint256",
          "name": "tonAmount",
          "type": "uint256"
        },
        {
          "indexed": false,
          "internalType": "address",
          "name": "payToken",
          "type": "address"
        },
        {
          "indexed": false,
          "internalType": "uint256",
          "name": "payTokenAmount",
          "type": "uint256"
        }
      ],
      "name": "DealAdded",
      "type": "event"
    },
    {
      "anonymous": false,
      "inputs": [
        {
          "indexed": false,
          "internalType": "address",
          "name": "payee",
          "type": "address"
        },
        {
          "indexed": false,
          "internalType": "uint256",
          "name": "tonAmount",
          "type": "uint256"
        },
        {
          "indexed": false,
          "internalType": "address",
          "name": "payToken",
          "type": "address"
        },
        {
          "indexed": false,
          "internalType": "uint256",
          "name": "payTokenAmount",
          "type": "uint256"
        }
      ],
      "name": "Dealt",
      "type": "event"
    },
    {
      "anonymous": false,
      "inputs": [
        {
          "indexed": true,
          "internalType": "address",
          "name": "previousOwner",
          "type": "address"
        },
        {
          "indexed": true,
          "internalType": "address",
          "name": "newOwner",
          "type": "address"
        }
      ],
      "name": "OwnershipTransferred",
      "type": "event"
    },
    {
      "inputs": [
        {
          "internalType": "address",
          "name": "_payee",
          "type": "address"
        },
        {
          "internalType": "uint256",
          "name": "_tonAmount",
          "type": "uint256"
        },
        {
          "internalType": "address",
          "name": "_payToken",
          "type": "address"
        },
        {
          "internalType": "uint256",
          "name": "_payTokenAmount",
          "type": "uint256"
        }
      ],
      "name": "addDeal",
      "outputs": [],
      "stateMutability": "nonpayable",
      "type": "function"
    },
    {
      "inputs": [
        {
          "internalType": "address",
          "name": "_payToken",
          "type": "address"
        },
        {
          "internalType": "uint256",
          "name": "_payTokenAmount",
          "type": "uint256"
        }
      ],
      "name": "buy",
      "outputs": [],
      "stateMutability": "nonpayable",
      "type": "function"
    },
    {
      "inputs": [
        {
          "internalType": "address",
          "name": "",
          "type": "address"
        }
      ],
      "name": "deals",
      "outputs": [
        {
          "internalType": "uint256",
          "name": "tonAmount",
          "type": "uint256"
        },
        {
          "internalType": "uint256",
          "name": "payTokenAmount",
          "type": "uint256"
        },
        {
          "internalType": "address",
          "name": "payToken",
          "type": "address"
        }
      ],
      "stateMutability": "view",
      "type": "function"
    },
    {
      "inputs": [
        {
          "internalType": "address",
          "name": "_payee",
          "type": "address"
        }
      ],
      "name": "delDeal",
      "outputs": [],
      "stateMutability": "nonpayable",
      "type": "function"
    },
    {
      "inputs": [],
      "name": "owner",
      "outputs": [
        {
          "internalType": "address",
          "name": "",
          "type": "address"
        }
      ],
      "stateMutability": "view",
      "type": "function"
    },
    {
      "inputs": [],
      "name": "renounceOwnership",
      "outputs": [],
      "stateMutability": "nonpayable",
      "type": "function"
    },
    {
      "inputs": [],
      "name": "ton",
      "outputs": [
        {
          "internalType": "contract IERC20",
          "name": "",
          "type": "address"
        }
      ],
      "stateMutability": "view",
      "type": "function"
    },
    {
      "inputs": [
        {
          "internalType": "address",
          "name": "newOwner",
          "type": "address"
        }
      ],
      "name": "transferOwnership",
      "outputs": [],
      "stateMutability": "nonpayable",
      "type": "function"
    },
    {
      "inputs": [
        {
          "internalType": "uint256",
          "name": "_amount",
          "type": "uint256"
        }
      ],
      "name": "withdraw",
      "outputs": [],
      "stateMutability": "nonpayable",
      "type": "function"
    },
    {
      "stateMutability": "payable",
      "type": "receive"
    }
  ],
  "bytecode": "0x60806040523480156200001157600080fd5b50604051620016593803806200165983398181016040528101906200003791906200014e565b6000620000496200012f60201b60201c565b9050806000806101000a81548173ffffffffffffffffffffffffffffffffffffffff021916908373ffffffffffffffffffffffffffffffffffffffff1602179055508073ffffffffffffffffffffffffffffffffffffffff16600073ffffffffffffffffffffffffffffffffffffffff167f8be0079c531659141344cd1fd0a4f28419497f9722a3daafe3b4186f6b6457e060405160405180910390a35080600160006101000a81548173ffffffffffffffffffffffffffffffffffffffff021916908373ffffffffffffffffffffffffffffffffffffffff16021790555050620001c8565b600033905090565b6000815190506200014881620001ae565b92915050565b6000602082840312156200016157600080fd5b6000620001718482850162000137565b91505092915050565b600062000187826200018e565b9050919050565b600073ffffffffffffffffffffffffffffffffffffffff82169050919050565b620001b9816200017a565b8114620001c557600080fd5b50565b61148180620001d86000396000f3fe60806040526004361061008a5760003560e01c80638996745c116100595780638996745c146101975780638da5cb5b146101c0578063cc48b947146101eb578063cce7ec1314610216578063f2fde38b1461023f576100ea565b80632e1a7d4d146100ef5780633227a3d414610118578063715018a6146101575780637fca304d1461016e576100ea565b366100ea5761009a600034610268565b6100a2610739565b73ffffffffffffffffffffffffffffffffffffffff166108fc349081150290604051600060405180830381858888f193505050501580156100e7573d6000803e3d6000fd5b50005b600080fd5b3480156100fb57600080fd5b5061011660048036038101906101119190610f8f565b610762565b005b34801561012457600080fd5b5061013f600480360381019061013a9190610e9e565b610891565b60405161014e939291906112ef565b60405180910390f35b34801561016357600080fd5b5061016c6108db565b005b34801561017a57600080fd5b5061019560048036038101906101909190610f03565b610a15565b005b3480156101a357600080fd5b506101be60048036038101906101b99190610e9e565b610b6d565b005b3480156101cc57600080fd5b506101d5610739565b6040516101e29190611174565b60405180910390f35b3480156101f757600080fd5b50610200610c65565b60405161020d9190611234565b60405180910390f35b34801561022257600080fd5b5061023d60048036038101906102389190610ec7565b610c8b565b005b34801561024b57600080fd5b5061026660048036038101906102619190610e9e565b610c99565b005b6000600260003373ffffffffffffffffffffffffffffffffffffffff1673ffffffffffffffffffffffffffffffffffffffff16815260200190815260200160002090508273ffffffffffffffffffffffffffffffffffffffff168160020160009054906101000a900473ffffffffffffffffffffffffffffffffffffffff1673ffffffffffffffffffffffffffffffffffffffff161461033d576040517f08c379a0000000000000000000000000000000000000000000000000000000008152600401610334906112af565b60405180910390fd5b81816001015414610383576040517f08c379a000000000000000000000000000000000000000000000000000000000815260040161037a9061128f565b60405180910390fd5b600073ffffffffffffffffffffffffffffffffffffffff168373ffffffffffffffffffffffffffffffffffffffff16146105c657600083905060008173ffffffffffffffffffffffffffffffffffffffff166370a082316103e2610739565b6040518263ffffffff1660e01b81526004016103fe9190611174565b60206040518083038186803b15801561041657600080fd5b505afa15801561042a573d6000803e3d6000fd5b505050506040513d601f19601f8201168201806040525081019061044e9190610fb8565b90508173ffffffffffffffffffffffffffffffffffffffff166323b872dd33610475610739565b876040518463ffffffff1660e01b81526004016104949392919061118f565b602060405180830381600087803b1580156104ae57600080fd5b505af11580156104c2573d6000803e3d6000fd5b505050506040513d601f19601f820116820180604052508101906104e69190610f66565b5083818373ffffffffffffffffffffffffffffffffffffffff166370a0823161050d610739565b6040518263ffffffff1660e01b81526004016105299190611174565b60206040518083038186803b15801561054157600080fd5b505afa158015610555573d6000803e3d6000fd5b505050506040513d601f19601f820116820180604052508101906105799190610fb8565b6105839190611337565b146105c3576040517f08c379a00000000000000000000000000000000000000000000000000000000081526004016105ba9061126f565b60405180910390fd5b50505b600160009054906101000a900473ffffffffffffffffffffffffffffffffffffffff1673ffffffffffffffffffffffffffffffffffffffff1663a9059cbb3383600001546040518363ffffffff1660e01b81526004016106279291906111c6565b602060405180830381600087803b15801561064157600080fd5b505af1158015610655573d6000803e3d6000fd5b505050506040513d601f19601f820116820180604052508101906106799190610f66565b50600260003373ffffffffffffffffffffffffffffffffffffffff1673ffffffffffffffffffffffffffffffffffffffff16815260200190815260200160002060008082016000905560018201600090556002820160006101000a81549073ffffffffffffffffffffffffffffffffffffffff021916905550507f95a39bbb3244ede9af520bb73be330924e9f6224af7523be2f1eb093840921f0338260000154858560405161072c94939291906111ef565b60405180910390a1505050565b60008060009054906101000a900473ffffffffffffffffffffffffffffffffffffffff16905090565b61076a610e42565b73ffffffffffffffffffffffffffffffffffffffff16610788610739565b73ffffffffffffffffffffffffffffffffffffffff16146107de576040517f08c379a00000000000000000000000000000000000000000000000000000000081526004016107d5906112cf565b60405180910390fd5b600160009054906101000a900473ffffffffffffffffffffffffffffffffffffffff1673ffffffffffffffffffffffffffffffffffffffff1663a9059cbb33836040518363ffffffff1660e01b815260040161083b9291906111c6565b602060405180830381600087803b15801561085557600080fd5b505af1158015610869573d6000803e3d6000fd5b505050506040513d601f19601f8201168201806040525081019061088d9190610f66565b5050565b60026020528060005260406000206000915090508060000154908060010154908060020160009054906101000a900473ffffffffffffffffffffffffffffffffffffffff16905083565b6108e3610e42565b73ffffffffffffffffffffffffffffffffffffffff16610901610739565b73ffffffffffffffffffffffffffffffffffffffff1614610957576040517f08c379a000000000000000000000000000000000000000000000000000000000815260040161094e906112cf565b60405180910390fd5b600073ffffffffffffffffffffffffffffffffffffffff1660008054906101000a900473ffffffffffffffffffffffffffffffffffffffff1673ffffffffffffffffffffffffffffffffffffffff167f8be0079c531659141344cd1fd0a4f28419497f9722a3daafe3b4186f6b6457e060405160405180910390a360008060006101000a81548173ffffffffffffffffffffffffffffffffffffffff021916908373ffffffffffffffffffffffffffffffffffffffff160217905550565b610a1d610e42565b73ffffffffffffffffffffffffffffffffffffffff16610a3b610739565b73ffffffffffffffffffffffffffffffffffffffff1614610a91576040517f08c379a0000000000000000000000000000000000000000000000000000000008152600401610a88906112cf565b60405180910390fd5b6000600260008673ffffffffffffffffffffffffffffffffffffffff1673ffffffffffffffffffffffffffffffffffffffff1681526020019081526020016000209050828160020160006101000a81548173ffffffffffffffffffffffffffffffffffffffff021916908373ffffffffffffffffffffffffffffffffffffffff1602179055508181600101819055508381600001819055507f4d4bc9e55d5bb906cf91e4ac5604558e0b323f8bd80bdfa6eec59a5e52c88d0e85858585604051610b5e94939291906111ef565b60405180910390a15050505050565b610b75610e42565b73ffffffffffffffffffffffffffffffffffffffff16610b93610739565b73ffffffffffffffffffffffffffffffffffffffff1614610be9576040517f08c379a0000000000000000000000000000000000000000000000000000000008152600401610be0906112cf565b60405180910390fd5b600260008273ffffffffffffffffffffffffffffffffffffffff1673ffffffffffffffffffffffffffffffffffffffff16815260200190815260200160002060008082016000905560018201600090556002820160006101000a81549073ffffffffffffffffffffffffffffffffffffffff0219169055505050565b600160009054906101000a900473ffffffffffffffffffffffffffffffffffffffff1681565b610c958282610268565b5050565b610ca1610e42565b73ffffffffffffffffffffffffffffffffffffffff16610cbf610739565b73ffffffffffffffffffffffffffffffffffffffff1614610d15576040517f08c379a0000000000000000000000000000000000000000000000000000000008152600401610d0c906112cf565b60405180910390fd5b600073ffffffffffffffffffffffffffffffffffffffff168173ffffffffffffffffffffffffffffffffffffffff161415610d85576040517f08c379a0000000000000000000000000000000000000000000000000000000008152600401610d7c9061124f565b60405180910390fd5b8073ffffffffffffffffffffffffffffffffffffffff1660008054906101000a900473ffffffffffffffffffffffffffffffffffffffff1673ffffffffffffffffffffffffffffffffffffffff167f8be0079c531659141344cd1fd0a4f28419497f9722a3daafe3b4186f6b6457e060405160405180910390a3806000806101000a81548173ffffffffffffffffffffffffffffffffffffffff021916908373ffffffffffffffffffffffffffffffffffffffff16021790555050565b600033905090565b600081359050610e5981611406565b92915050565b600081519050610e6e8161141d565b92915050565b600081359050610e8381611434565b92915050565b600081519050610e9881611434565b92915050565b600060208284031215610eb057600080fd5b6000610ebe84828501610e4a565b91505092915050565b60008060408385031215610eda57600080fd5b6000610ee885828601610e4a565b9250506020610ef985828601610e74565b9150509250929050565b60008060008060808587031215610f1957600080fd5b6000610f2787828801610e4a565b9450506020610f3887828801610e74565b9350506040610f4987828801610e4a565b9250506060610f5a87828801610e74565b91505092959194509250565b600060208284031215610f7857600080fd5b6000610f8684828501610e5f565b91505092915050565b600060208284031215610fa157600080fd5b6000610faf84828501610e74565b91505092915050565b600060208284031215610fca57600080fd5b6000610fd884828501610e89565b91505092915050565b610fea8161136b565b82525050565b610ff9816113b3565b82525050565b600061100c602683611326565b91507f4f776e61626c653a206e6577206f776e657220697320746865207a65726f206160008301527f64647265737300000000000000000000000000000000000000000000000000006020830152604082019050919050565b6000611072601b83611326565b91507f4661696c656420746f207472616e7366657220706179546f6b656e00000000006000830152602082019050919050565b60006110b2600c83611326565b91507f77726f6e6720616d6f756e7400000000000000000000000000000000000000006000830152602082019050919050565b60006110f2600b83611326565b91507f77726f6e6720746f6b656e0000000000000000000000000000000000000000006000830152602082019050919050565b6000611132602083611326565b91507f4f776e61626c653a2063616c6c6572206973206e6f7420746865206f776e65726000830152602082019050919050565b61116e816113a9565b82525050565b60006020820190506111896000830184610fe1565b92915050565b60006060820190506111a46000830186610fe1565b6111b16020830185610fe1565b6111be6040830184611165565b949350505050565b60006040820190506111db6000830185610fe1565b6111e86020830184611165565b9392505050565b60006080820190506112046000830187610fe1565b6112116020830186611165565b61121e6040830185610fe1565b61122b6060830184611165565b95945050505050565b60006020820190506112496000830184610ff0565b92915050565b6000602082019050818103600083015261126881610fff565b9050919050565b6000602082019050818103600083015261128881611065565b9050919050565b600060208201905081810360008301526112a8816110a5565b9050919050565b600060208201905081810360008301526112c8816110e5565b9050919050565b600060208201905081810360008301526112e881611125565b9050919050565b60006060820190506113046000830186611165565b6113116020830185611165565b61131e6040830184610fe1565b949350505050565b600082825260208201905092915050565b6000611342826113a9565b915061134d836113a9565b9250828210156113605761135f6113d7565b5b828203905092915050565b600061137682611389565b9050919050565b60008115159050919050565b600073ffffffffffffffffffffffffffffffffffffffff82169050919050565b6000819050919050565b60006113be826113c5565b9050919050565b60006113d082611389565b9050919050565b7f4e487b7100000000000000000000000000000000000000000000000000000000600052601160045260246000fd5b61140f8161136b565b811461141a57600080fd5b50565b6114268161137d565b811461143157600080fd5b50565b61143d816113a9565b811461144857600080fd5b5056fea2646970667358221220448e616827d8e739cc306babae32dd6d134daa528e33083da5ef0ade04c2850a64736f6c63430008000033",
  "linkReferences": {},
  "deployedLinkReferences": {}
}